:100000000C942A000C9447000C9447000C94470071
:100010000C9447000C9447000C9447000C94470044
:100020000C9447000C9447000C9447000C94470034
:100030000C9447000C9447000C9447000C94470024
:100040000C9447000C9447000C9447000C94470014
:100050000C94470011241FBECFE5D8E0DEBFCDBF12
:1000600010E0A0E6B0E0E2ECFAE202C005900D92EA
:10007000A438B107D9F710E0A4E8B0E001C01D92A0
:10008000A638B107E1F70E942C0E0C945F150C9472
:100090000000EF92FF920F931F937B018C0120E0F1
:1000A00030E040E05FE40E94490388238CF0C801FF
:1000B000B70120E030E040E05FE40E94C1010E940F
:1000C000A9039B01AC01205030404040504806C07D
:1000D000C801B7010E94A9039B01AC01B901CA0183
:1000E0001F910F91FF90EF900895A0E0B0E0EBE733
:1000F000F0E00C944812DC012B01FA019C91923043
:1001000008F439C1EB018881823008F433C194309E
:1001100069F4843009F02FC111969C91119789815F
:10012000981709F428C1A4E6B0E025C1843009F489
:1001300021C18230A9F4923009F01DC19A01AD01AC
:1001400088E0EA010990AE01E90109929E0181501F
:10015000C1F7E201898111969C918923818308C1AD
:10016000923009F407C112962D903C901397EB0141
:100170008A819B811496AD90BD90CD90DC901797AD
:10018000EC80FD800E811F819101281B390BB90184
:1001900037FF04C066277727621B730B6032710537
:1001A0000CF061C0121613066CF537014801062EDB
:1001B00004C096948794779467940A94D2F721E0C8
:1001C00030E040E050E004C0220F331F441F551FB1
:1001D0006A95D2F721503040404050402E213F21B7
:1001E00040235123211531054105510521F021E01E
:1001F00030E040E050E079018A01E628F72808293C
:1002000019293CC0232BD1F1260E371E350146019A
:10021000062E04C096948794779467940A94D2F734
:1002200021E030E040E050E004C0220F331F441FC3
:10023000551F6A95D2F721503040404050402A2146
:100240003B214C215D21211531054105510521F04E
:1002500021E030E040E050E059016A01A628B728CB
:10026000C828D9280BC0821593052CF01C01AA249C
:10027000BB24650103C0EE24FF24870111969C91E5
:10028000D20111968C91981709F445C0992339F041
:10029000A80197012A193B094C095D0906C0A6016E
:1002A00095012E193F09400B510B57FD08C01182D3
:1002B0003382228224833583468357831DC081E0A5
:1002C00081833382228288279927DC01821B930B4A
:1002D000A40BB50B84839583A683B7830DC0220F2F
:1002E000331F441F551F24833583468357838281E0
:1002F000938101979383828324813581468157813D
:10030000DA01C9010197A109B1098F5F9F4FAF4F72
:10031000BF4328F30BC0918333822282EA0CFB1C7B
:100320000C1D1D1DE482F5820683178383E0808304
:10033000248135814681578157FF1AC0C901AA27F8
:1003400097FDA095BA2F81709070A070B0705695EF
:10035000479537952795822B932BA42BB52B848318
:100360009583A683B7838281938101969383828349
:10037000DF0101C0D201CD01CDB7DEB7E2E10C94BF
:100380006412A0E2B0E0E7ECF1E00C94541269834F
:100390007A838B839C832D833E834F835887E9E048
:1003A000EE2EF12CEC0EFD1ECE010196B7010E943F
:1003B000D2048E010F5E1F4FCE010596B8010E9438
:1003C000D2048A8991E089278A8BC701B801AE01DE
:1003D000475E5F4F0E9475000E94FD03A096E6E015
:1003E0000C947012A0E2B0E0E8EFF1E00C9454122B
:1003F00069837A838B839C832D833E834F835887C5
:10040000F9E0EF2EF12CEC0EFD1ECE010196B701A6
:100410000E94D2048E010F5E1F4FCE010596B801D7
:100420000E94D204C701B801AE01475E5F4F0E942F
:1004300075000E94FD03A096E6E00C947012A0E205
:10044000B0E0E5E2F2E00C94481269837A838B8392
:100450009C832D833E834F835887CE010196BE0136
:10046000675F7F4F0E94D204CE010596BE016F5E8A
:100470007F4F0E94D2049985923088F0898982301A
:10048000C8F0943019F4823051F404C0843029F457
:10049000923081F484E690E0C6C0923049F420E0C6
:1004A0009A858A89981321E02A87CE010996BBC0D4
:1004B000823049F420E09A858A89981321E02A8BBA
:1004C000CE014196B0C02D843E844F8458886D88FB
:1004D0007E888F88988CEE24FF248701AA24BB2471
:1004E000650140E050E060E070E0E0E0F0E0C10174
:1004F00081709070892BE9F0E60CF71C081D191D1E
:100500009A01AB012A0D3B1D4C1D5D1D80E090E062
:10051000A0E0B0E0E614F7040805190520F481E036
:1005200090E0A0E0B0E0BA01A901480F591F6A1F8E
:100530007B1FAA0CBB1CCC1CDD1C97FE08C081E0F5
:1005400090E0A0E0B0E0A82AB92ACA2ADB2A3196B6
:10055000E032F10549F0660C771C881C991C569412
:10056000479437942794C3CFFA85EA892B893C892D
:100570008B859C85280F391F2E5F3F4F17C0CA01FE
:1005800081709070892B61F016950795F794E79428
:1005900080E090E0A0E0B0E8E82AF92A0A2B1B2BC3
:1005A00076956795579547952F5F3F4F77FDE7CF36
:1005B0000CC0440F551F661F771F17FD4160EE0CDE
:1005C000FF1C001F111F21503040403090E05907A0
:1005D00090E0690790E4790760F32B8F3C8FDB0193
:1005E000CA018F779070A070B07080349105A1051A
:1005F000B10561F447FD0AC0E114F10401051105DC
:1006000029F0405C5F4F6F4F7F4F40781A8EFE1786
:1006100011F081E08A8F4D8F5E8F6F8F78A383E01A
:10062000898FCE0149960E94FD03A096E2E10C94C9
:100630006412A8E1B0E0EFE1F3E00C945412698396
:100640007A838B839C832D833E834F83588789E0F5
:10065000E82EF12CEC0EFD1ECE010196B7010E9492
:10066000D2048E010F5E1F4FCE010596B8010E9485
:10067000D2048985823040F08989823028F0C70110
:10068000B8010E944A0501C08FEF6896E6E00C941D
:100690007012A8E1B0E0EFE4F3E00C945412698327
:1006A0007A838B839C832D833E834F83588789E095
:1006B000E82EF12CEC0EFD1ECE010196B7010E9432
:1006C000D2048E010F5E1F4FCE010596B8010E9425
:1006D000D2048985823040F08989823028F0C701B0
:1006E000B8010E944A0501C08FEF6896E6E00C94BD
:1006F0007012A8E1B0E0EFE7F3E00C9454126983C4
:100700007A838B839C832D833E834F83588789E034
:10071000E82EF12CEC0EFD1ECE010196B7010E94D1
:10072000D2048E010F5E1F4FCE010596B8010E94C4
:10073000D2048985823040F08989823028F0C7014F
:10074000B8010E944A0501C081E06896E6E00C9479
:100750007012ACE0B0E0EFEAF3E00C945812698359
:100760007A838B839C83CE010196BE016B5F7F4FA2
:100770000E94D2048D81823061F1823050F1843048
:1007800021F48E81882351F12EC02F81388537FDC9
:1007900020C06E812F3131051CF06623F9F023C093
:1007A0008EE190E0821B930B29853A854B855C8511
:1007B00004C056954795379527958A95D2F76623B5
:1007C000B1F050954095309521953F4F4F4F5F4F79
:1007D0000EC020E030E040E050E009C02FEF3FEFD6
:1007E0004FEF5FE704C020E030E040E050E8B9019F
:1007F000CA012C96E2E00C947412DF92EF92FF9201
:100800000F931F93FC01E480F58006811781D1804E
:100810008081823048F480E090E0A0E1B0E0E82AF6
:10082000F92A0A2B1B2BA5C0843009F49FC0823003
:1008300021F4EE24FF24870105C0E114F104010531
:10084000110519F4E0E0F0E096C0628173819FEF3A
:10085000623879070CF05BC022E83FEF261B370BAC
:100860002A3131052CF020E030E040E050E02AC091
:10087000B801A701022E04C0769567955795479554
:100880000A94D2F781E090E0A0E0B0E004C0880FC5
:10089000991FAA1FBB1F2A95D2F70197A109B10979
:1008A0008E219F21A023B1230097A105B10521F03E
:1008B00081E090E0A0E0B0E09A01AB01282B392B59
:1008C0004A2B5B2BDA01C9018F779070A070B07052
:1008D00080349105A105B10539F427FF09C0205CDA
:1008E0003F4F4F4F5F4F04C0215C3F4F4F4F5F4F13
:1008F000E0E0F0E02030A0E03A07A0E04A07A0E402
:100900005A0710F0E1E0F0E079018A0127C0603871
:10091000710564F5FB01E158FF4FD801C7018F77DE
:100920009070A070B07080349105A105B10539F4C4
:10093000E7FE0DC080E490E0A0E0B0E004C08FE3EB
:1009400090E0A0E0B0E0E80EF91E0A1F1B1F17FFA1
:1009500005C016950795F794E794319687E01695AC
:100960000795F794E7948A95D1F705C0EE24FF2404
:100970008701EFEFF0E06E2F679566276795902F60
:100980009F77D794DD24D7948E2F8695492F462BB9
:10099000582F5D29B701CA011F910F91FF90EF9069
:1009A000DF900895FC01DB01408151812281622F9B
:1009B0006F7770E0221F2227221F9381892F880FD3
:1009C000822B282F30E0991F9927991F11969C930D
:1009D000119721153105A9F54115510561057105DD
:1009E00011F482E037C082E89FEF13969C938E93B8
:1009F00012979A01AB0167E0220F331F441F551F66
:100A00006A95D1F783E08C930DC0220F331F441FEA
:100A1000551F12968D919C911397019713969C9355
:100A20008E931297203080E0380780E0480780E4FA
:100A3000580758F314962D933D934D935C93179755
:100A400008952F3F310579F4411551056105710570
:100A500019F484E08C93089564FF03C081E08C93C3
:100A600012C01C9210C02F57304013963C932E9307
:100A7000129783E08C9387E0440F551F661F771F02
:100A80008A95D1F7706414964D935D936D937C9322
:100A9000179708951F93DC01FB019C91923008F495
:100AA00047C08081823008F443C0943051F41196DD
:100AB0001C91843099F58181682F70E0611B710968
:100AC0003FC0843021F0923031F48230B9F181811D
:100AD000882389F12DC011961C9111978230F1F075
:100AE00081811817D9F412962D913C911397828128
:100AF00093818217930794F028173907BCF0149656
:100B00008D919D910D90BC91A02D248135814681C0
:100B10005781281739074A075B0718F4112341F05A
:100B20000AC082179307A407B50740F4112319F0F0
:100B300061E070E005C06FEF7FEF02C060E070E041
:100B4000CB011F910895DF93CF93CDB7DEB72797E1
:100B50000FB6F894DEBF0FBECDBF8B836C834D8381
:100B60008B81282F30E03F832E838E819F818130BF
:100B70009105D1F02E813F81223031052CF48E81F8
:100B80009F81009761F049C02E813F81223031055D
:100B900081F08E819F818330910581F03EC08AE390
:100BA00090E09A8389830EC087E390E09A838983DB
:100BB00009C084E390E09A83898304C081E390E0D4
:100BC0009A8389838D818823A9F4E981FA818081C0
:100BD000482F8C81282F30E081E090E0022E02C067
:100BE000880F991F0A94E2F780958423E981FA819E
:100BF000808313C0E981FA818081482F8C81282F5E
:100C000030E081E090E0022E02C0880F991F0A9424
:100C1000E2F7842BE981FA81808327960FB6F89456
:100C2000DEBF0FBECDBFCF91DF910895DF93CF938D
:100C3000CDB7DEB727970FB6F894DEBF0FBECDBF96
:100C40008B836C834D838B81282F30E03F832E83F1
:100C50008E819F8181309105D1F02E813F8122309C
:100C600031052CF48E819F81009761F049C02E815F
:100C70003F812230310581F08E819F818330910543
:100C800081F03EC08BE390E09A8389830EC088E3B5
:100C900090E09A83898309C085E390E09A838983F1
:100CA00004C082E390E09A8389838D818130A1F42E
:100CB000E981FA818081482F8C81282F30E081E002
:100CC00090E0022E02C0880F991F0A94E2F7842B4D
:100CD000E981FA81808314C0E981FA818081482FFB
:100CE0008C81282F30E081E090E0022E02C0880F36
:100CF000991F0A94E2F780958423E981FA81808321
:100D000027960FB6F894DEBF0FBECDBFCF91DF910F
:100D10000895DF93CF93CDB7DEB728970FB6F89439
:100D2000DEBF0FBECDBF8B836C835E834D838B8113
:100D3000282F30E038872F834F8158854130510567
:100D4000D9F08F8198858230910534F42F813885D0
:100D50002115310561F031C04F8158854230510570
:100D600081F08F8198858330910581F026C089E3D9
:100D700090E09A8389830EC086E390E09A8389830A
:100D800009C083E390E09A83898304C080E390E004
:100D90009A838983E981FA818081282F30E08C81D0
:100DA000882F90E0A90102C0559547958A95E2F7F2
:100DB000CA018170ED81FE81808328960FB6F89478
:100DC000DEBF0FBECDBFCF91DF910895DF93CF93EC
:100DD00000D000D000D0CDB7DEB78B836C838B8181
:100DE000282F30E03E832D838D819E8181309105B7
:100DF000D1F02D813E81223031052CF48D819E81F0
:100E0000009761F029C02D813E812230310581F0AB
:100E10008D819E818330910581F01EC08AE390E030
:100E20009A8389830EC087E390E09A83898309C0FF
:100E300084E390E09A83898304C081E390E09A83FD
:100E400089838C81882321F4E981FA81108204C08E
:100E5000E981FA818FEF808326960FB6F894DEBF82
:100E60000FBECDBFCF91DF910895DF93CF9300D018
:100E700000D0CDB7DEB789836A838981282F30E01F
:100E80003C832B838B819C8181309105D1F02B8118
:100E90003C81223031052CF48B819C81009761F0DC
:100EA0001EC02B813C812230310581F08B819C81D9
:100EB0008330910581F013C0EBE3F0E08A818083F9
:100EC0000EC0E8E3F0E08A81808309C0E5E3F0E04A
:100ED0008A81808304C0E2E3F0E08A8180830F90FE
:100EE0000F900F900F90CF91DF910895DF93CF93E4
:100EF00000D000D00F92CDB7DEB789837B836A83A1
:100F00008981282F30E03D832C838C819D81813025
:100F10009105E1F02C813D81223031052CF48C814A
:100F20009D81009761F026C02C813D8122303105E2
:100F3000A1F08C819D8183309105B1F01BC0E9E364
:100F4000F0E08081EA81FB81808314C0E6E3F0E079
:100F50008081EA81FB8180830DC0E3E3F0E0808142
:100F6000EA81FB81808306C0E0E3F0E08081EA81D2
:100F7000FB8180830F900F900F900F900F90CF9177
:100F8000DF910895DF93CF9300D000D0CDB7DEB7C7
:100F900089836A838981282F30E03C832B838B816E
:100FA0009C818130910509F12B813C8122303105F2
:100FB0002CF48B819C81009761F03AC02B813C819D
:100FC00022303105F1F08B819C818330910529F12C
:100FD0002FC0ABE3B0E0EBE3F0E08081982F9F708F
:100FE0008A81807F892B8C9323C0A8E3B0E0E8E35B
:100FF000F0E08081982F9F708A81807F892B8C936D
:1010000017C0A5E3B0E0E5E3F0E08081982F9F7082
:101010008A81807F892B8C930BC0A2E3B0E0E2E34E
:10102000F0E08081982F9F708A81807F892B8C933C
:101030000F900F900F900F90CF91DF910895DF9355
:10104000CF9300D000D0CDB7DEB789836A83898182
:10105000282F30E03C832B838B819C81813091054C
:1010600041F12B813C81223031052CF48B819C8114
:10107000009761F056C02B813C812230310561F12F
:101080008B819C8183309105D1F14BC0ABE3B0E003
:10109000EBE3F0E08081282F2F708A81882F90E089
:1010A00082959295907F9827807F9827822B8C93AA
:1010B00038C0A8E3B0E0E8E3F0E08081282F2F708B
:1010C0008A81882F90E082959295907F9827807FE3
:1010D0009827822B8C9325C0A5E3B0E0E5E3F0E0F0
:1010E0008081282F2F708A81882F90E08295929599
:1010F000907F9827807F9827822B8C9312C0A2E341
:10110000B0E0E2E3F0E08081282F2F708A81882F01
:1011100090E082959295907F9827807F9827822BE8
:101120008C930F900F900F900F90CF91DF910895B7
:10113000DF93CF9300D000D00F92CDB7DEB78FEF03
:101140008B831A825EC08A81882F90E0FC01E0596F
:10115000FF4F908183E0692F40E00E9416061982BC
:101160003DC08981882F90E0FC01E459FF4F9081B8
:101170009E012C5F3F4F83E0692FA9010E948906E1
:101180008C81882341F58981482F50E08A81282F5E
:1011900030E0CA01880F991F880F991F820F931F93
:1011A000FC01EC58FF4F80818B830FC08981882F11
:1011B00090E0FC01E459FF4F90819E012C5F3F4F6E
:1011C00083E0692FA9010E9489068C81882371F32D
:1011D0008B818D831CC089818F5F89838981843055
:1011E00008F4BFCF8A81882F90E0FC01E059FF4FBF
:1011F000908183E0692F41E00E9416068A818F5F0B
:101200008A838A81843008F49ECF8B818D838D817F
:101210000F900F900F900F900F90CF91DF91089546
:10122000DF93CF93CDB7DEB783E060E041E00E946B
:10123000A30583E061E041E00E94A30583E062E052
:1012400041E00E94A30583E063E041E00E94A30522
:1012500083E064E040E00E94A30583E065E040E0B5
:101260000E94A30583E066E040E00E94A30583E0BE
:1012700067E040E00E94A30583E06FEF0E9435071E
:10128000CF91DF910895DF93CF93CDB7DEB76D9700
:101290000FB6F894DEBF0FBECDBF8D8F80E06D8D91
:1012A0000E94C20782E061E040E00E94160682E0F0
:1012B00060E040E00E94160682E062E041E00E94A9
:1012C000160680E090E0A0E0B0E4898F9A8FAB8FA3
:1012D000BC8F698D7A8D8B8D9C8D20E030E04AE744
:1012E00055E40E941F02DC01CB018D8B9E8BAF8BDE
:1012F000B88F6D897E898F89988D20E030E040E835
:101300005FE30E94790388232CF481E090E09C8BBA
:101310008B8B3FC06D897E898F89988D20E03FEF50
:101320004FE757E40E94190318164CF5698D7A8D22
:101330008B8D9C8D20E030E040E251E40E941F0242
:10134000DC01CB01BC01CD010E944900DC01CB01D5
:101350009C8B8B8B0FC080E991E09A8B898B89895C
:101360009A890197F1F79A8B898B8B899C890197D0
:101370009C8B8B8B8B899C89009769F714C06D8936
:101380007E898F89988D0E944900DC01CB019C8B5E
:101390008B8B8B899C89988B8F878F8598890197F8
:1013A000F1F7988B8F8782E062E040E00E9416069A
:1013B00080E06D8D0E941F0882E062E041E00E94A3
:1013C000160680E090E0A0E0B0E48B879C87AD87B4
:1013D000BE876B857C858D859E8520E030E04AE761
:1013E00055E40E941F02DC01CB018F839887A987F7
:1013F000BA876F81788589859A8520E030E040E85A
:101400005FE30E94790388232CF481E090E09E83BF
:101410008D833FC06F81788589859A8520E03FEF75
:101420004FE757E40E94190318164CF56B857C852D
:101430008D859E8520E030E040E251E40E941F024D
:10144000DC01CB01BC01CD010E944900DC01CB01D4
:101450009E838D830FC080E991E09C838B838B8179
:101460009C810197F1F79C838B838D819E810197ED
:101470009E838D838D819E81009769F714C06F8153
:10148000788589859A850E944900DC01CB019E837D
:101490008D838D819E819A83898389819A81019729
:1014A000F1F79A83898382E062E040E00E941606A9
:1014B0006D960FB6F894DEBF0FBECDBFCF91DF9112
:1014C0000895DF93CF93CDB7DEB76D970FB6F8943D
:1014D000DEBF0FBECDBF8D8F80E06D8D0E94C20735
:1014E00082E061E040E00E94160682E060E041E0B8
:1014F0000E94160682E062E041E00E94160680E04B
:1015000090E0A0E0B0E4898F9A8FAB8FBC8F698D9B
:101510007A8D8B8D9C8D20E030E04AE755E40E9467
:101520001F02DC01CB018D8B9E8BAF8BB88F6D8939
:101530007E898F89988D20E030E040E85FE30E944B
:10154000790388232CF481E090E09C8B8B8B3FC047
:101550006D897E898F89988D20E03FEF4FE757E4B2
:101560000E94190318164CF5698D7A8D8B8D9C8D10
:1015700020E030E040E251E40E941F02DC01CB0198
:10158000BC01CD010E944900DC01CB019C8B8B8BFF
:101590000FC080E991E09A8B898B89899A8901979C
:1015A000F1F79A8B898B8B899C8901979C8B8B8B0C
:1015B0008B899C89009769F714C06D897E898F8912
:1015C000988D0E944900DC01CB019C8B8B8B8B8911
:1015D0009C89988B8F878F8598890197F1F7988BD5
:1015E0008F8782E062E040E00E94160680E06D8D09
:1015F0000E941F0882E062E041E00E94160680E03F
:1016000090E0A0E0B0E48B879C87AD87BE876B85B8
:101610007C858D859E8520E030E04AE755E40E9478
:101620001F02DC01CB018F839887A987BA876F815E
:10163000788589859A8520E030E040E85FE30E9464
:10164000790388232CF481E090E09E838D833FC052
:101650006F81788589859A8520E03FEF4FE757E4D1
:101660000E94190318164CF56B857C858D859E8527
:1016700020E030E040E251E40E941F02DC01CB0197
:10168000BC01CD010E944900DC01CB019E838D830A
:101690000FC080E991E09C838B838B819C810197B3
:1016A000F1F79C838B838D819E8101979E838D832F
:1016B0008D819E81009769F714C06F817885898537
:1016C0009A850E944900DC01CB019E838D838D8128
:1016D0009E819A83898389819A810197F1F79A8300
:1016E000898382E062E040E00E9416066D960FB6A4
:1016F000F894DEBF0FBECDBFCF91DF910895DF9389
:10170000CF93CDB7DEB7AA970FB6F894DEBF0FBE62
:10171000CDBF82E061E041E00E94A30582E060E08D
:1017200041E00E94A30582E062E041E00E94A3053F
:1017300080E064E041E00E94A30580E065E041E0D4
:101740000E94A30580E066E041E00E94A30580E0DE
:1017500067E041E00E94A30580E090E0A0E2B2E4EF
:101760008FA398A7A9A7BAA76FA178A589A59AA5BD
:1017700020E030E04AE755E40E941F02DC01CB0183
:101780008BA39CA3ADA3BEA36BA17CA18DA19EA1A5
:1017900020E030E040E85FE30E94790388232CF4E6
:1017A00081E090E09AA389A33FC06BA17CA18DA1A9
:1017B0009EA120E03FEF4FE757E40E94190318165F
:1017C0004CF56FA178A589A59AA520E030E040E20C
:1017D00051E40E941F02DC01CB01BC01CD010E943B
:1017E0004900DC01CB019AA389A30FC080E991E0F5
:1017F00098A38F8F8F8D98A10197F1F798A38F8F62
:1018000089A19AA101979AA389A389A19AA1009776
:1018100069F714C06BA17CA18DA19EA10E94490013
:10182000DC01CB019AA389A389A19AA19E8F8D8FF8
:101830008D8D9E8D0197F1F79E8F8D8F82E00E9496
:10184000430988E20E94430980E090E0A0E2B2E40C
:10185000898F9A8FAB8FBC8F698D7A8D8B8D9C8D84
:1018600020E030E04AE755E40E941F02DC01CB0192
:101870008D8B9E8BAF8BB88F6D897E898F89988D6C
:1018800020E030E040E85FE30E94790388232CF4F5
:1018900081E090E09C8B8B8B3FC06D897E898F8926
:1018A000988D20E03FEF4FE757E40E941903181688
:1018B0004CF5698D7A8D8B8D9C8D20E030E040E277
:1018C00051E40E941F02DC01CB01BC01CD010E944A
:1018D0004900DC01CB019C8B8B8B0FC080E991E030
:1018E0009A8B898B89899A890197F1F79A8B898BD1
:1018F0008B899C8901979C8B8B8B8B899C8900970A
:1019000069F714C06D897E898F89988D0E9449007E
:10191000DC01CB019C8B8B8B8B899C89988B8F876F
:101920008F8598890197F1F7988B8F878DE00E94BA
:10193000430980E090E0A0E2B2E48B879C87AD870A
:10194000BE876B857C858D859E8520E030E04AE7EB
:1019500055E40E941F02DC01CB018F839887A98781
:10196000BA876F81788589859A8520E030E040E8E4
:101970005FE30E94790388232CF481E090E09E834A
:101980008D833FC06F81788589859A8520E03FEF00
:101990004FE757E40E94190318164CF56B857C85B8
:1019A0008D859E8520E030E040E251E40E941F02D8
:1019B000DC01CB01BC01CD010E944900DC01CB015F
:1019C0009E838D830FC080E991E09C838B838B8104
:1019D0009C810197F1F79C838B838D819E81019778
:1019E0009E838D838D819E81009769F714C06F81DE
:1019F000788589859A850E944900DC01CB019E8308
:101A00008D838D819E819A83898389819A810197B3
:101A1000F1F79A83898381E00E944309AA960FB661
:101A2000F894DEBF0FBECDBFCF91DF910895DF9355
:101A3000CF9300D000D0CDB7DEB79C838B831A82C2
:101A400019820FC029813A818B819C81FC01E20FB0
:101A5000F31F80810E94610A89819A8101969A838D
:101A6000898329813A818B819C81FC01E20FF31FDC
:101A70008081882339F70F900F900F900F90CF91AE
:101A8000DF910895DF93CF9300D0CDB7DEB7898380
:101A90006A838981882361F48A81882F90E09093FA
:101AA0008500809384008A8180580E9443090FC07A
:101AB0008981813061F48A81882F90E040969093EB
:101AC0008500809384008A8180540E9443090F908E
:101AD0000F90CF91DF910895DF93CF93CDB7DEB70D
:101AE00062970FB6F894DEBF0FBECDBF9A8B898B7D
:101AF00000D000D000D0EDB7FEB73196CE010196F0
:101B00009183808380E690E09383828389899A8998
:101B1000958384830E94BE128DB79EB706960FB63A
:101B2000F8949EBF0FBE8DBFCE0101960E94170D87
:101B300062960FB6F894DEBF0FBECDBFCF91DF9196
:101B40000895DF93CF93CDB7DEB72E970FB6F894F5
:101B5000DEBF0FBECDBF81E00E94430980E090E070
:101B6000A0E0B0E48B879C87AD87BE876B857C85C2
:101B70008D859E8520E030E04AE755E40E941F02F3
:101B8000DC01CB018F839887A987BA876F8178851D
:101B900089859A8520E030E040E85FE30E94790380
:101BA00088232CF481E090E09E838D833FC06F8179
:101BB000788589859A8520E03FEF4FE757E40E94BA
:101BC000190318164CF56B857C858D859E8520E064
:101BD00030E040E251E40E941F02DC01CB01BC0175
:101BE000CD010E944900DC01CB019E838D830FC093
:101BF00080E991E09C838B838B819C810197F1F735
:101C00009C838B838D819E8101979E838D838D81A3
:101C10009E81009769F714C06F81788589859A85C0
:101C20000E944900DC01CB019E838D838D819E81C2
:101C30009A83898389819A810197F1F79A838983AD
:101C400080E80E9443092E960FB6F894DEBF0FBEBF
:101C5000CDBFCF91DF9108950F931F93DF93CF9363
:101C6000CDB7DEB7CC56D0400FB6F894DEBF0FBE6E
:101C7000CDBF0E947F0B0E9410090E949808FE01B0
:101C8000EA5AFF4F882F90E09183808309C00E9419
:101C90009808FE01EA5AFF4F882F90E091838083D5
:101CA000FE01EA5AFF4F808191818F3F910579F3C0
:101CB000FE01EA5AFF4F808191818B32910501F13B
:101CC000FE01EA5AFF4F808191818D329105C1F06A
:101CD000FE01EA5AFF4F808191818A32910581F09D
:101CE000FE01EA5AFF4F808191818F32910541F0C8
:101CF000FE01EA5AFF4F808191818532910549F5B5
:101D0000CE01885A9F4F0E947F12FE01ED5AFF4F6D
:101D100091838083CE01885A9F4F23E630E0B9013A
:101D200041E050E00E949D1280E20E94610AFE01A3
:101D3000EA5AFF4F80810E94610A80E20E94610A94
:101D4000DE01AB5ABF4FFE01EA5AFF4F80818C93F0
:101D500094CFFE01EA5AFF4F808191818D33910526
:101D600009F053C3CE01885A9F4F0E947F12FE0193
:101D7000EF5AFF4F91838083FE01EB5AFF4F808122
:101D80008B3209F0AAC080E20E94610A8DE30E94B2
:101D9000610A80E20E94610AAE01415B5F4FFE0171
:101DA000ED5AFF4FDE01AF5ABF4F208131818D9137
:101DB0009C91820F931FFA0191838083FE01E15B66
:101DC000FF4F808191810E946C0DFE01ED5BFF4F02
:101DD00080E090E0AAEFB3E480839183A283B38391
:101DE0008E01015C1F4FFE01ED5BFF4F6081718131
:101DF0008281938120E030E04AE755E40E941F028F
:101E0000DC01CB01F80180839183A283B383FE01BF
:101E1000FF96608171818281938120E030E040E80B
:101E20005FE30E94790388232CF481E090E09EAF69
:101E30008DAF46C0FE01FF966081718182819381E2
:101E400020E03FEF4FE757E40E941903181664F5AE
:101E5000FE01ED5BFF4F608171818281938120E003
:101E600030E040E251E40E941F02DC01CB01BC01E2
:101E7000CD010E944900DC01CB019EAF8DAF0FC0A8
:101E800080E991E09CAF8BAF8BAD9CAD0197F1F7F2
:101E90009CAF8BAF8DAD9EAD01979EAF8DAF8DADDD
:101EA0009EAD009769F716C0FE01FF9660817181B3
:101EB000828193810E944900DC01CB019EAF8DAFEE
:101EC0008DAD9EAD9AAF89AF89AD9AAD0197F1F70F
:101ED0009AAF89AF81E00E944309FE01EB5AFF4FA0
:101EE00080818D3209F099C080E20E94610A8DE301
:101EF0000E94610A80E20E94610AAE01435B5F4F6B
:101F0000FE01ED5AFF4FDE01AF5ABF4F20813181F4
:101F10008D919C91B901681B790BCB01FA019183DA
:101F20008083FE01E35BFF4F808191810E946C0DF5
:101F300080E090E0AAEFB3E48DAB9EABAFABB8AF5F
:101F40006DA97EA98FA998AD20E030E04AE755E45D
:101F50000E941F02DC01CB0189AB9AABABABBCABDF
:101F600069A97AA98BA99CA920E030E040E85FE349
:101F70000E94790388232CF481E090E098AB8FA72E
:101F80003FC069A97AA98BA99CA920E03FEF4FE740
:101F900057E40E94190318164CF56DA97EA98FA964
:101FA00098AD20E030E040E251E40E941F02DC01E5
:101FB000CB01BC01CD010E944900DC01CB0198ABF3
:101FC0008FA70FC080E991E09EA78DA78DA59EA544
:101FD0000197F1F79EA78DA78FA598A9019798ABB8
:101FE0008FA78FA598A9009769F714C069A97AA946
:101FF0008BA99CA90E944900DC01CB0198AB8FA75B
:102000008FA598A99CA78BA78BA59CA50197F1F7F5
:102010009CA78BA781E00E944309FE01EB5AFF4F6A
:1020200080818A3209F09DC080E20E94610A8DE3BE
:102030000E94610A80E20E94610AAE01455B5F4F27
:10204000FE01ED5AFF4FDE01AF5ABF4F20813181B3
:102050008D919C91BC01269FC001279F900D369FBA
:10206000900D1124FA0191838083FE01E55BFF4FFF
:10207000808191810E946C0D80E090E0AAEFB3E432
:102080008FA398A7A9A7BAA76FA178A589A59AA594
:1020900020E030E04AE755E40E941F02DC01CB015A
:1020A0008BA39CA3ADA3BEA36BA17CA18DA19EA17C
:1020B00020E030E040E85FE30E94790388232CF4BD
:1020C00081E090E09AA389A33FC06BA17CA18DA180
:1020D0009EA120E03FEF4FE757E40E941903181636
:1020E0004CF56FA178A589A59AA520E030E040E2E3
:1020F00051E40E941F02DC01CB01BC01CD010E9412
:102100004900DC01CB019AA389A30FC080E991E0CB
:1021100098A38F8F8F8D98A10197F1F798A38F8F38
:1021200089A19AA101979AA389A389A19AA100974D
:1021300069F714C06BA17CA18DA19EA10E944900EA
:10214000DC01CB019AA389A389A19AA19E8F8D8FCF
:102150008D8D9E8D0197F1F79E8F8D8F81E00E946E
:102160004309FE01EB5AFF4F80818F3209F099C07D
:1021700080E20E94610A8DE30E94610A80E20E946F
:10218000610A8E01075B1F4FFE01ED5AFF4FDE0112
:10219000AF5ABF4F808191812D913C91B9010E942E
:1021A0002112CB01F80191838083FE01E75BFF4F91
:1021B000808191810E946C0D80E090E0AAEFB3E4F1
:1021C000898F9A8FAB8FBC8F698D7A8D8B8D9C8D0B
:1021D00020E030E04AE755E40E941F02DC01CB0119
:1021E0008D8B9E8BAF8BB88F6D897E898F89988DF3
:1021F00020E030E040E85FE30E94790388232CF47C
:1022000081E090E09C8B8B8B3FC06D897E898F89AC
:10221000988D20E03FEF4FE757E40E94190318160E
:102220004CF5698D7A8D8B8D9C8D20E030E040E2FD
:1022300051E40E941F02DC01CB01BC01CD010E94D0
:102240004900DC01CB019C8B8B8B0FC080E991E0B6
:102250009A8B898B89899A890197F1F79A8B898B57
:102260008B899C8901979C8B8B8B8B899C89009790
:1022700069F714C06D897E898F89988D0E94490005
:10228000DC01CB019C8B8B8B8B899C89988B8F87F6
:102290008F8598890197F1F7988B8F8781E00E944D
:1022A0004309FE01EB5AFF4F8081853209F098C047
:1022B00080E20E94610A8DE30E94610A80E20E942E
:1022C000610A8E01095B1F4FFE01ED5AFF4FDE01CF
:1022D000AF5ABF4F808191812D913C91B9010E94ED
:1022E0002112F80191838083FE01E95BFF4F808119
:1022F00091810E946C0D80E090E0AAEFB3E48B879F
:102300009C87AD87BE876B857C858D859E8520E00B
:1023100030E04AE755E40E941F02DC01CB018F83C5
:102320009887A987BA876F81788589859A8520E003
:1023300030E040E85FE30E94790388232CF481E0D9
:1023400090E09E838D833FC06F81788589859A85D3
:1023500020E03FEF4FE757E40E94190318164CF5B1
:102360006B857C858D859E8520E030E040E251E4E0
:102370000E941F02DC01CB01BC01CD010E9449007B
:10238000DC01CB019E838D830FC080E991E09C83AB
:102390008B838B819C810197F1F79C838B838D814B
:1023A0009E8101979E838D838D819E81009769F721
:1023B00014C06F81788589859A850E944900DC0167
:1023C000CB019E838D838D819E819A8389838981B0
:1023D0009A810197F1F79A83898381E00E944309EA
:1023E000FE01ED5AFF4F11821082FE01EF5AFF4F9E
:1023F00011821082CE01885A9F4F23E630E0B90146
:1024000041E050E00E949D1238CCFE01EA5AFF4F95
:102410008081805DFE01E459FF4F8083CE01885AA0
:102420009F4F9E0124593F4FB90141E050E00E9467
:10243000A612FE01EA5AFF4F808191810E946C0D25
:102440001CCC97FB092E07260AD077FD04D00CD0B0
:1024500006D000201AF4709561957F4F0895F6F725
:10246000909581959F4F0895AA1BBB1B51E107C012
:10247000AA1FBB1FA617B70710F0A61BB70B881F14
:10248000991F5A95A9F780959095BC01CD010895A3
:102490002F923F924F925F926F927F928F929F9274
:1024A000AF92BF92CF92DF92EF92FF920F931F9362
:1024B000CF93DF93CDB7DEB7CA1BDB0B0FB6F89413
:1024C000DEBF0FBECDBF09942A88398848885F8453
:1024D0006E847D848C849B84AA84B984C884DF80C4
:1024E000EE80FD800C811B81AA81B981CE0FD11DA8
:1024F0000FB6F894DEBF0FBECDBFED010895FC010D
:1025000088279927E89421912032E9F3293010F0A7
:102510002E30C8F32B3241F02D3239F4689404C0C8
:102520000E94B612820F911D219120532A30C0F3D0
:102530001EF4909581959F4F0895FB01DC0102C028
:1025400001900D9241505040D8F70895FB01DC01F5
:102550000D900020E9F711974150504028F001906C
:1025600000200D92C9F708951C9208957AE0979F74
:10257000902D879F802D910D11240895AEE0B0E03D
:10258000E4ECF2E10C9456120D891E8986E08C83EE
:102590001A8309838FEF9FE79E838D839E01275EB9
:1025A0003F4FCE0101966F89788DA9010E94E212FA
:1025B0002F813885020F131FF80110822E96E4E058
:1025C0000C947212ABE0B0E0E8EEF2E10C94481229
:1025D0003C012B015A01FC0117821682838181FD87
:1025E00003C06FEF7FEFC6C19AE0892E1E010894E9
:1025F000211C311CF3012381F20123FD859123FF6E
:1026000081912F01882309F4B2C1853239F423FD69
:10261000859123FF81912F01853229F490E0B30148
:102620000E94D514E7CF982FFF24EE249924FFE1D0
:10263000FF15D0F09B3269F09C3228F4903259F0AB
:10264000933291F40EC09D3249F0903369F441E029
:1026500024C052E0F52A84E0F82A28C098E0F92A3C
:1026600025C0E0E1FE2A22C0F7FC29C0892F805353
:102670008A3070F4F6FE05C0989C902C1124980EB8
:1026800015C0E89CE02C1124E80EF0E2FF2A0EC0F1
:102690009E3229F4F6FC6BC140E4F42A07C09C3654
:1026A00019F450E8F52A02C0983649F4F20123FDE6
:1026B000959123FF91912F01992309F0B8CF892F8C
:1026C0008554833018F08052833038F444E050E071
:1026D000A40EB51E5FE359830FC0933631F09337D4
:1026E00079F0933509F056C020C0F50180818983C7
:1026F00042E050E0A40EB51E610101E010E012C0FE
:10270000F501C080D180F6FC03C06FEF7FEF02C0FF
:10271000692D70E042E050E0A40EB51EC6010E9493
:10272000CA148C015FE7F52214C0F501C080D18086
:10273000F6FC03C06FEF7FEF02C0692D70E042E04E
:1027400050E0A40EB51EC6010E94BF148C0150E8D3
:10275000F52AF3FE07C01AC080E290E0B3010E94A0
:10276000D514EA948E2D90E008171907A8F30EC02F
:10277000F601F7FC8591F7FE81916F0190E0B301BE
:102780000E94D514E110EA94015010400115110582
:1027900079F7EAC0943611F0993669F5F7FE08C06A
:1027A000F501208131814281538184E090E00AC0AB
:1027B000F501808191819C01442737FD4095542F7C
:1027C00082E090E0A80EB91E9FE6F92257FF09C0EB
:1027D00050954095309521953F4F4F4F5F4FE0E822
:1027E000FE2ACA01B901A1012AE030E00E940115C8
:1027F000D82ED21840C0953729F41F2D1F7E2AE00D
:1028000030E01DC01F2D197F9F3661F0903720F4F6
:10281000983509F0ACC00FC0903739F0983709F0FF
:10282000A6C004C028E030E00AC0106114FD1460A6
:1028300020E130E004C014FD166020E132E017FF13
:1028400008C0F501608171818281938144E050E08C
:1028500008C0F50180819181BC0180E090E042E0F8
:1028600050E0A40EB51EA1010E940115D82ED21869
:102870008FE7F82EF122F6FE0BC05EEFF522D91499
:1028800038F4F4FE07C0F2FC05C08FEEF82202C057
:102890001D2D01C0192DF4FE0DC0FE01ED0DF11D21
:1028A0008081803319F499EEF92208C01F5FF2FE8F
:1028B00005C003C08F2D867809F01F5F0F2DF3FC34
:1028C00014C0F0FE0FC01E1510F09D2C0BC09D2CE7
:1028D0009E0C911A1E2D06C080E290E0B3010E946A
:1028E000D5141F5F1E15C0F304C01E1510F4E11AA5
:1028F00001C0EE2404FF0FC080E390E0B3010E940A
:10290000D51402FF1DC001FD03C088E790E00EC092
:1029100088E590E00BC0802F867891F001FF02C01F
:102920008BE201C080E2F7FC8DE290E0B3010E94EF
:10293000D51406C080E390E0B3010E94D5149A94A8
:10294000D914C0F3DA94F101ED0DF11D808190E00E
:10295000B3010E94D514DD20A9F706C080E290E003
:10296000B3010E94D514EA94EE20C1F743CEF301DF
:1029700066817781CB012B96E2E10C946412FC0115
:102980000590615070400110D8F7809590958E0F9A
:102990009F1F0895FC016150704001900110D8F70D
:1029A000809590958E0F9F1F08950F931F93CF933F
:1029B000DF938C01EB018B8181FF1BC082FF0DC077
:1029C0002E813F818C819D812817390764F4E8812D
:1029D000F9810193F983E88306C0E885F985802FA2
:1029E0000995892B31F48E819F8101969F838E8377
:1029F00002C00FEF1FEFC801DF91CF911F910F9120
:102A00000895FA01AA27283051F1203181F1E89484
:102A10006F936E7F6E5F7F4F8F4F9F4FAF4FB1E0D1
:102A20003ED0B4E03CD0670F781F891F9A1FA11DCC
:102A3000680F791F8A1F911DA11D6A0F711D811DCD
:102A4000911DA11D20D009F468943F912AE0269F92
:102A500011243019305D3193DEF6CF010895462FF1
:102A60004770405D4193B3E00FD0C9F7F6CF462FD2
:102A70004F70405D4A3318F0495D31FD405241933B
:102A800002D0A9F7EACFB4E0A695979587957795F8
:102A90006795BA95C9F700976105710508959B017F
:102AA000AC010A2E06945795479537952795BA9508
:102AB000C9F7620F731F841F951FA01D0895F89416
:022AC000FFCF46
:102AC2002564000000000000000000000405060765
:102AD200000102030708092F0405062A0102032D3B
:042AE20025003D2B63
:00000001FF
